:020000040800F2
:1000000008400120D101000891140008270E0008C3
:10001000A91000086F0A00084D66000800000000E3
:10002000000000000000000000000000655500080E
:10003000190B000800000000EF090008F95700083C
:10004000EB010008EB010008EB010008EB010008E0
:10005000EB010008EB010008EB010008EB010008D0
:10006000EB010008EB010008EB010008EB010008C0
:10007000EB010008EB010008EB010008EB010008B0
:10008000EB010008EB010008EB010008EB010008A0
:10009000EB010008EB010008EB010008EB01000890
:1000A000EB010008EB010008EB010008EB01000880
:1000B000EB010008EB010008EB010008EB01000870
:1000C000EB010008EB010008EB010008EB01000860
:1000D000EB010008EB010008EB0100088D6100084E
:1000E000EB010008EB010008EB010008EB01000840
:1000F000EB010008EB010008EB010008EB01000830
:10010000EB010008EB010008EB010008EB0100081F
:1001100051610008EB010008EB010008EB01000849
:10012000EB010008EB010008EB010008EB010008FF
:10013000EB010008EB010008EB010008EB010008EF
:10014000EB010008EB010008EB010008EB010008DF
:10015000EB010008EB010008EB010008EB010008CF
:10016000EB010008EB010008EB010008EB010008BF
:10017000EB010008EB010008EB010008EB010008AF
:10018000EB010008EB010008DFF80CD000F0D6FB13
:1001900000480047AD7500080840012072B670475E
:1001A00062B67047EFF3108072B6704780F3108824
:1001B000704730BF704720BF7047B0FA80F070477B
:1001C00090FAA0F0B0FA80F0704790FAA0F0704773
:1001D0000648804706480047FEE7FEE7FEE7FEE7E1
:1001E000FEE7FEE7FEE7FEE7FEE7FEE7A1580008B0
:1001F000890100089FED1A1AF5EE000A40EE010A87
:10020000BDEEE00AF5EEC00A10EE100AF1EE10FAAB
:1002100038BF401E00EE100A1349F7EE001AB8EE80
:10022000C00A30EEC00ADFED0F0A20EE200AFCEE15
:10023000C00A10EE900AC0F3080000EE900A01EB2D
:100240008000F8EE600A90ED011A70EE600A90ED01
:10025000000A71EEE01A21EE800A00EE810A704772
:1002600083F9223E000000443C7C0008DFED190ABF
:10027000B5EEC00A60EE200ABDEEE01A11EE100ADB
:10028000F1EE10FA38BF401E00EE100A1349F7EEE7
:10029000001AB8EEC00A30EEC00ADFED0F0A60EEB9
:1002A000200ABCEEE00A10EE100AC0F3080000EECF
:1002B000100A01EB8000B8EE400A90ED011A70EED2
:1002C000C00A90ED000A71EEE01A21EE800A00EEFD
:1002D000810A704783F9223E000000443C7C0008FC
:1002E0002DE9FE4F804681EA0300C00F0C460090C6
:1002F00021F0004123F00045B8EB0200A94105D2EE
:100300004046214690461C460B46024623F00040DC
:10031000104347D0270DC7F30A00C3F30A510290D8
:10032000401A019040286BDAC3F3130040F4801B9D
:100330000098924620B10023D2EB030A63EB0B0B2B
:1003400001985946C0F14002504600F0E1F90646D6
:100350000D4650465946019A00F0F9F910EB080095
:100360006141002487EA115284EAE7731A4340D0BE
:10037000009A62B3019A012A4FEA075215DC001B6A
:1003800061EB02014FF0004202EA0752CDE9004260
:10039000001C41F5801132462B4600F030FA03B0C4
:1003A000BDE8F08F40462146F9E7001B61EB0201F2
:1003B000001C41F5801300185B412018A2F50017BE
:1003C00047EB030140EAD570B6196D4111E06D08A5
:1003D0004FEA360645EAC0754FEA0752001B61EB4B
:1003E0000201001C41F5801149084FEA3000001954
:1003F000514132462B4603B0BDE8F04F00F0F0B952
:100400000098012240000023D0EB020263EBE0736E
:10041000009821464FEAE074B8EB000061EB04015C
:10042000E9E783F000435BE781F0004158E72DE9FD
:10043000FE4F81EA030404F0004421F000410094DF
:100440004FF0000B23F0004350EA01045ED052EA63
:1004500003045BD0C3F30A54C1F30A552C44A4F23D
:10046000F3340194A0FB0254C1F3130141F4801151
:10047000C3F3130343F4801301FB024400FB034E58
:10048000840A970A44EA815447EA8357A4FB076821
:1004900002958D0A05FB07854FEA932C04FB0C544B
:1004A0002705029D4FEA065847EA1637B5EB0805BF
:1004B0006EEB070C870E920E47EA811742EA831211
:1004C000A7FB0201B6EB0B0164EB00042B0D43EA22
:1004D0000C335E1844EB1C50DA465146E7FB020130
:1004E000C5F313044FEA0B3343EA14534FEA0432C3
:1004F000019C43EA0603A4F10C040294009CCDE99C
:1005000000B400F07CF903B0BDE8F08F0020014694
:10051000F9E72DE9F04D81EA030404F0004B21F0E6
:10052000004514464FF0000A23F0004150EA05024E
:1005300020D054EA01021DD0C5F30A570246C5F384
:100540001303C1F31300C1F30A5640F4801543F4BA
:100550008013A7EB0608101BD64608F2FD3873EB94
:10056000050002D308F1010801E092185B41B8F1DF
:10057000000F03DA00200146BDE8F08D00204FF4A3
:100580008011064684460EE0171B73EB050705D362
:10059000121B63EB050306434CEA010C49084FEAC2
:1005A000300092185B4150EA0107EDD152EA030096
:1005B00012D082EA040083EA0501084305D0101B2B
:1005C000AB4106D20122002306E000224FF0004397
:1005D00002E06FF0010253101AEB06004CEB0851D9
:1005E00010EB0A0041EB0B01BDE8F04D00F0F8B84C
:1005F0000EB5C10F80EAE0700844CA07002140F23E
:1006000033438DE80E000A460B4600F0F8F803B0BD
:1006100000BD70B5C1F30A5201F000450024C1F3DA
:10062000130140F2FF3341F480119A4201DA0020B5
:1006300070BD40F233439A42A2F2334203DC52428D
:1006400000F075F800E090402C43F1D0404270BDBE
:1006500000F0004230F000400AD0C10D01F5607199
:10066000C0F3160042EA0151C20840071143704727
:10067000002001467047000030B5041E71F10004EF
:1006800004DB4FF00044404264EB0101141E73F19F
:10069000000405DB1C464FF00043524263EB0403A9
:1006A0008B4208BF824230BD30B5041E71F1000498
:1006B00004DB4FF00044404264EB0101141E73F16F
:1006C000000405DB1C464FF00043524263EB040379
:1006D000994208BF904230BD01F0004330B421F090
:1006E000004150EA010206D00A0DA2F56072C1F382
:1006F0001301002A02DC30BC00207047440F44EA9A
:10070000C104C100E01830BC00EBC25000F031B8A9
:10071000202A04DB203A00FA02F1002070479140C1
:10072000C2F1200320FA03F3194390407047202AB6
:1007300004DB203A21FA02F00021704721FA02F38B
:10074000D040C2F120029140084319467047202A48
:1007500006DBCB17203A41FA02F043EAE07306E0E9
:1007600041FA02F3D040C2F12002914008431946F9
:1007700070470029A8BF7047401C490008BF20F0FF
:100780000100704710B4B0FA80FC00FA0CF050EA97
:10079000010404BF10BC704749B1CCF1200421FA18
:1007A00004F411FA0CF118BF012121430843A3EB13
:1007B0000C01CB1D4FEA00614FEA102042BF002020
:1007C00010BC704700EBC35010440029A4BF10BCFC
:1007D0007047401C490008BF20F0010010BC704762
:1007E00010B5141E73F1000408DA401C41F1000139
:1007F00092185B411A4301D120F0010010BD2DE990
:10080000F04D92469B4611B1B1FA81F202E0B0FA86
:1008100080F220329046FFF77BFF04460F4640EA05
:100820000A0041EA0B0153465A46084313D01146C9
:1008300053EA010019D0C8F140025046FFF777FF94
:1008400005460E46504659464246FFF761FF0843AB
:1008500005D0012004E020463946BDE8F08D002097
:10086000054346EAE0762C4337430A986305E40AD9
:10087000A0EB08000022FD0A44EA47540A3002D5E2
:1008800000200146E9E7010510196941DDE9084545
:1008900000196941BDE8F04DA2E72DE9F04D0023B4
:1008A0001A461B1A8A4103DB00200146BDE8F08D81
:1008B000C1F30A52C1F3130141F480154FF0000B4C
:1008C000D10702D100186D41521E0027044640F2A4
:1008D000FF11384601EB620A3E4680460246002080
:1008E0004FF48011FFF723FFC2197141BB1846EB8B
:1008F0000100B4EB030C75EB000C04D3E41A65EBB8
:10090000000517460E46241908F101006D41804686
:100910003428E3DDF91946EB0600091BA84103D290
:100920004FF0FF32134601E0002213461BEB070095
:1009300046EB0A51BDE8F04DFFF752BF064C074D9C
:1009400006E0E06840F0010394E80700984710349F
:10095000AC42F6D3FFF71CFC40840008608400081A
:1009600070B58C1810F8015B15F0070301D110F871
:10097000013B2A1106D110F8012B03E010F8016B9E
:1009800001F8016B5B1EF9D12B0705D40023521E21
:100990000DD401F8013BFAE710F8013BCB1A921C89
:1009A00003E013F8015B01F8015B521EF9D5A14287
:1009B000D8D3002070BD000021484FF0FF01017026
:1009C000002080F309881F48016881F308881E48C9
:1009D0004FF08051016062B6FEE71B484FF0805136
:1009E0000160704718484FF080510160704772B63F
:1009F000EFF3098050B11EF0100F08BF20ED108AF0
:100A0000734620E9F80F11490968086000B51048DD
:100A100080475DF804EB0F480F490A7802700B48D5
:100A20000E490A6802601068B0E8F80F9E461EF092
:100A3000100F08BFB0EC108A80F3098862B67047C7
:100A400022ED00E03001002004ED00E0280100204C
:100A500049230008CE000020CF0000202C010020F8
:100A60001FB5684604F00AFD019804B010BD00BF30
:100A7000FEE710B500F020F800F01AF810BD0000F5
:100A800010B5002400BF00BFFFF78CFB044600BF79
:100A900000BF1021054800F009FB00BF00BF204641
:100AA000FFF784FB00BF00BF10BD0000548500208D
:100AB00010B5FFF7E5FF10BD10B500200249086032
:100AC00000F00AF810BD00006C0000200149086029
:100AD000704700006C00002010B5FFF7C1FF04460E
:100AE0000848006840F08070064908600020064908
:100AF00048600846006840F0010008602046FFF7A3
:100B0000E5FF10BDFCED00E0001000E00149486881
:100B100070470000001000E07047000010B586B07C
:100B20000446314951F82400012104F077FC2F4894
:100B300030F81400019002208DF808008DF80900AB
:100B400000208DF80A0001208DF80B00284951F88B
:100B5000240001A900F0F4F8264830F814000190B0
:100B6000234951F8240001A900F0EAF8224B1A5D4C
:100B7000224B195D1E4B53F8240000F029F91E4B3F
:100B80001A5D1F4B195D1A4B53F8240000F020F931
:100B90001C4951F824001C4951F824200121904798
:100BA00003A805F0A5F80020ADF80C004FF6FF7083
:100BB00004900020ADF81400ADF80E00134951F870
:100BC000240003A905F052F8104951F8240000232D
:100BD0001A46032104F0D0FE0C4951F824000121EB
:100BE00004F0BEFE06B010BD487800085478000836
:100BF000247800085A7800086678000860780008B1
:100C0000637800083C780008600000203078000815
:100C100010B504462046FFF781FF204600F004F897
:100C2000204600F07BF810BD064A02EB4011064A50
:100C300002EB800292ED000A81ED060A034A125C83
:100C40000A777047E08400206C7800087878000804
:100C50002DE9F0472DED048B06462C4800EB461499
:100C60002B48406A1FFA80F82A4951F8260004F000
:100C7000A4FE1FFA80F92089A8EB000085B26581E7
:100C80002088A9EB000007B2A4F80880A4F800901F
:100C90006068384460600DB94FF6FF7594ED010A45
:100CA000B8EEC00AD4ED060A60EE208AD4ED060A3A
:100CB00000EE107AB8EEC00A20EE808A9FED160A88
:100CC00028EE000ADFED140A60EE200A00EE105A4A
:100CD000B8EE400A80EE809A207F60B1B1EE680ADB
:100CE00084ED030AB1EE480A84ED050AB1EE490A23
:100CF00084ED040A05E0C4ED038A84ED058A84EDE1
:100D0000049ABDEC048BBDE8F0870000E08400206D
:100D1000001000403078000800007A4470B50446A6
:100D2000054800EB441500206860044951F8240090
:100D3000002104F098FF70BDE084002030780008A6
:100D4000F0B50A4600210023002400BF3DE0012544
:100D500005FA01F3156805EA03049C4234D10568DD
:100D60004F000326BE40B543056015794E00B540DF
:100D70000668354305601579012D02D01579022DDD
:100D800016D185684F000326BE40B543856055796E
:100D90004E00B540866835438560456801268E4023
:100DA000B5434560456896798E40B6B23543456097
:100DB000C5684F000326BE40B543C560D5794E00D7
:100DC000B540C6683543C560491C1029BFD3F0BD86
:100DD000F0B5002300244D07ED0E02FA05F3CE1006
:100DE00000F1200555F826504E07F70E0F26BE409D
:100DF000B543CF1000F1200646F82750CE1000F181
:100E0000200555F8265045EA0304CE1000F12005D0
:100E100045F82640F0BD4183704701837047426921
:100E20004A404261704700BFFEE700009FED080A9C
:100E3000084880ED000A9FED060A80ED020A9FED4A
:100E4000040A80ED030A9FED020A80ED010A704753
:100E5000000000004085002010B52DED088B0446F1
:100E6000474890ED000A474880ED000A464890ED5B
:100E7000000A444880ED010A0220FFF7E9FE012044
:100E8000FFF7E6FE414890ED0D0AF0EE408A90ED46
:100E9000150AB0EE409A90ED0C0AF0EE409A90EDF3
:100EA000140AB0EE40AA94ED130A3648D0ED000AB9
:100EB0009FED371A00EE810AB0EE408AB0EE480A84
:100EC000FFF798F960EE28BAB0EE480AFFF7CEF9BE
:100ED00049EE40BAF0EE6BAAB0EE480AFFF7C6F949
:100EE00060EE28BAB0EE480AFFF784F949EE00BA7E
:100EF000B0EE6BBA274880ED028A224890ED010AD5
:100F0000DFED230A20EE200A224880ED050A90ED4D
:100F1000000A30EE2A0A80ED000A90ED010A30EE58
:100F20000B0A80ED010AB0EE480AFFF763F960EEA4
:100F300029BAB0EE480AFFF799F94AEE40BA1548C7
:100F4000C0ED03BAB0EE480AFFF790F960EE29BA97
:100F5000B0EE480AFFF74EF94AEE00BA0D48C0ED70
:100F600004BA9FED0D0A80ED070A9FED0C0A80ED93
:100F7000060A9FED0B0A80ED080ABDEC088B10BD38
:100F8000480000204085002058000020E084002018
:100F900035FA8E3CB4FF00200000F842000000004B
:100FA000DA0F493F1CB50446124951F824000121CB
:100FB00004F034FA104830F81400009001208DF845
:100FC000040000208DF8060003208DF805000120A4
:100FD0008DF80700094951F824006946FFF7B0FE73
:100FE000054A32F81410054A52F82400FFF715FF9D
:100FF0001CBD0000CC770008C4770008200000204A
:1010000010B50020FFF7CEFF0120FFF7CBFF10BD8A
:1010100010B50446044A32F81410044A52F8240069
:10102000FFF7FBFE10BD0000C47700082000002081
:1010300010B50446044A32F81410044A52F8240049
:10104000FFF7E9FE10BD0000C47700082000002073
:1010500010B50446044A32F81410044A52F8240029
:10106000FFF7DDFE10BD0000C4770008200000205F
:1010700010B5012000F002F810BD000070B5044664
:10108000002500BF00BFFFF78DF8054600BF00BF79
:101090000448046000BF00BF2846FFF787F800BF80
:1010A00000BF70BD7000002000BFFEE730B50546F0
:1010B0000C4622460021284600F026F830BD0000EC
:1010C0000D480E4901600146416000218160C16008
:1010D000016141618161C16101620163C16241627B
:1010E00007498163C1634FF4B8410164416401461B
:1010F000044A116070470000648500204845415053
:10110000AC850020740000202DE9F04103460C4618
:1011100017460FB9BDE8F08103B9FBE700250022AF
:1011200002E02D022543521C042AFAD3384603F06C
:10113000030C1946BCF1000F08D0624603E001F829
:10114000014B401E521C08B1042AF8D30E4601E0A0
:1011500020C6001F0428FBD2314602E001F8014BF3
:10116000401E0028FAD100BFD4E7000030B58BB094
:1011700004460D460121084604F060F901210846A5
:1011800004F04CF9012200215848FFF721FE01220A
:1011900011465648FFF71CFE012202215348FFF773
:1011A00017FE012203215148FFF712FE012009908A
:1011B00002208DF8280003208DF8290000208DF8EA
:1011C0002A0002208DF82B0009A94848FFF7B8FD36
:1011D000022009908DF8280003208DF829000020B6
:1011E0008DF82A0002208DF82B0009A93F48FFF74F
:1011F000A7FD0420099002208DF8280003208DF817
:10120000290000208DF82A0002208DF82B0009A962
:101210003648FFF795FD0820099002208DF8280038
:1012200003208DF8290000208DF82A0002208DF877
:101230002B0009A92D48FFF783FDA8B2ADF81800CF
:101240000020ADF81A000794ADF8200006A94FF071
:10125000804004F00BFD6020ADF804000120ADF8E3
:1012600006000020ADF8100001A94FF0804004F006
:10127000A7FB01A94FF0804004F0EAFB01A94FF061
:10128000804004F045FC01A94FF0804004F09AFC36
:101290000821C80604F0D2FB0821C80604F02AFC85
:1012A0000821C80604F084FC0821C80604F0C6FC26
:1012B0000121880704F048FB0121880704F050FB56
:1012C00000214FF0804004F0C6FC00214FF0804028
:1012D00004F0C3FC00214FF0804004F0C0FC00216A
:1012E0004FF0804004F0BDFC0BB030BD0000024068
:1012F00030B58BB004460D460121022004F09EF863
:101300000121042004F08AF8022206215548FFF743
:101310005FFD022207215348FFF75AFD02220821F0
:101320005048FFF755FD022209214E48FFF750FDB6
:101330004020099002208DF8280003208DF8290014
:1013400000208DF82A0002208DF82B0009A94548BD
:10135000FFF7F6FC8020099002208DF8280003207A
:101360008DF8290000208DF82A0002208DF82B002E
:1013700009A93C48FFF7E4FC4FF480700990022073
:101380008DF8280003208DF8290000208DF82A0010
:1013900002208DF82B0009A93248FFF7D1FC4FF449
:1013A0000070099002208DF8280003208DF8290094
:1013B00000208DF82A0002208DF82B0009A9294869
:1013C000FFF7BEFCA8B2ADF818000020ADF81A0077
:1013D0000794ADF8200006A9234804F047FC6020DC
:1013E000ADF804000120ADF806000020ADF81000B3
:1013F00001A91D4804F0E4FA01A91B4804F028FBE8
:1014000001A9194804F084FB01A9174804F0DAFB8C
:101410000821154804F012FB0821134804F06AFB68
:101420000821114804F0C4FB08210F4804F006FC11
:1014300001210D4804F088FA01210B4804F090FACC
:101440000021094804F007FC0021074804F005FCCE
:101450000021054804F003FC0021034804F001FCCE
:101460000BB030BD000802400004004007E049F620
:101470003F4101E04A1E91B20029FBDC401E0028DA
:10148000F5D1704710B50446204604F08BFF10BD1F
:101490007047000070B5002100230F22C4781CB3F0
:1014A000174C246804F4E064C4F5E064C4F3072135
:1014B000C1F10404E3B20A4144789C40E1B284786B
:1014C000144021430C07210E0E4C05786155047819
:1014D00004F01F050124AC4005786D11AD0005F145
:1014E000E025C5F8004109E0047804F01F05012457
:1014F000AC40054D0678761145F8264070BD0000D9
:101500000CED00E000E400E080E100E0024901436E
:10151000024A1160704700000000FA050CED00E07F
:101520007047000010B50348006810B1014800681A
:10153000804710BD8C00002070B5044600F0A8F86C
:1015400000204149087041490870414908704149EB
:1015500008604149086041490870414908704149A3
:1015600008704148006858B14048056845B13E4898
:10157000066803E0761E002028602D1D002EF9D19C
:1015800000203B4908603B4908603B4908603B49F3
:1015900008603B4908603B4908603B4908603B499B
:1015A000087001F0E9FF02F0C9F8204601F088F95F
:1015B000208800B170BD204601F05EFD208800B19A
:1015C000F8E7204601F064FD208800B1F2E72046EC
:1015D00001F048FE208800B1ECE7204601F0FCFF56
:1015E000208800B1E6E7204602F066F9208800B1C5
:1015F000E0E7204602F088FC208800B1DAE72046C8
:1016000001F0A6FC208800B1D4E7204601F0CAFA18
:10161000208800B1CEE7204603F0E6FB208800B129
:10162000C8E7204602F0B4FB208800B1C2E720469C
:1016300003F036FC208800B1BCE701F067F8FFF743
:101640006FFF00BFB6E70000A0000020A10000204F
:10165000DA000020280100202C010020CE0000200C
:10166000CF000020D0000020AC780008A878000847
:101670008000002084000020880000208C000020D2
:101680009000002094000020980000200601002017
:10169000064800680649096800EB810005490860B2
:1016A0000846006820F0070008607047A878000826
:1016B000AC7800083001002010B500242D480078D7
:1016C000012800D010BD00BFFEF76CFD044600BF2E
:1016D0002948007828B900BF2046FEF767FD00BF03
:1016E000F0E725480078401E234908700846007836
:1016F000002805DD00BF2046FEF758FD00BFE1E7EA
:101700001E480078002805DD00BF2046FEF74EFD8C
:1017100000BFD7E701F01CFF1949087008460078A0
:1017200000EB4000174951F82000174908600846AF
:10173000006816490968884205D100BF2046FEF7B7
:1017400035FD00BFBEE710480068D0F89000401C8F
:101750000D490968C1F890000D480068401C0C490B
:101760000860FFF73FF900BF2046FEF71FFD00BFEE
:1017700000BFA7E7A1000020A0000020DA000020A1
:10178000CF000020C0F900202C01002028010020FB
:10179000FC00002010B500241F480078002800DD60
:1017A00010BD1E480078002800DDF9E700BFFEF7F5
:1017B000F9FC044600BF01F0CBFE19490870084649
:1017C000007800EB4000174951F8200016490860E6
:1017D0000846006815490968884205D100BF2046BF
:1017E000FEF7E4FC00BFDBE70F480068D0F890008C
:1017F000401C0D490968C1F890000D480068401C64
:101800000B490860FFF7E9F800BF2046FEF7CEFC61
:1018100000BF00BFC4E70000A0000020DA000020E5
:10182000CF000020C0F900202C010020280100205A
:10183000FC00002070B504460025174800780028F9
:1018400003DD46F66250208070BD14480078012800
:1018500003D045F689602080F6E711480078FA2821
:1018600003DB45F209202080EEE700BF00BFFEF752
:1018700099FC054600BF00BF09480078401C084994
:10188000087000BF00BF2846FEF790FC00BF00BFF5
:101890000020208000BFD7E7A0000020A10000208A
:1018A000DA00002070B5044600251F4800780028A3
:1018B00003DD46F66550208070BD1C480078012885
:1018C00003D045F689602080F6E71948007818B9FA
:1018D00046F664502080EFE700BF00BFFEF762FCD1
:1018E000054600BF00BF12480078401E104908702E
:1018F0000846007800280ADD00BF00BF2846FEF732
:1019000055FC00BF00BF46F663502080D4E700BFFF
:1019100000BF2846FEF74AFC00BF00BFFFF73AFFB2
:101920000020208000BFC7E7A0000020A100002009
:10193000DA00002010B5044612480078E8B901F03A
:1019400007FE1149087008460078104908700E48D3
:10195000007800EB40000E4951F820000D49086066
:10196000084600680C490860012006490870FFF726
:1019700023F843F69920208002E045F68A60208013
:1019800010BD0000A1000020CF000020CE000020EC
:10199000C0F900202C010020280100202DE9F04191
:1019A00007464FF0000800BF00BFFEF7FBFB804674
:1019B00000BF00BF00203B4908603B4908803B490D
:1019C00008803B4908603B4908603B4908603B4947
:1019D000088100BF00BF4046FEF7E8FB00BF00BF24
:1019E00000BF00BFFEF7DEFB804600BF00BF3448EB
:1019F000046800BF00BF4046FEF7D8FB00BF00BF31
:101A000020E000BF00BFFEF7CDFB804600BF00BF57
:101A1000002044F8780F2063A061A082E082606219
:101A2000A062FFF773F82062783C04F1640600209E
:101A3000B081D4F8B84000BF00BF4046FEF7B6FB07
:101A400000BF00BF002CDCD100BF00BFFEF7AAFB27
:101A5000804600BF00BF1B48056800BF00BF40466E
:101A6000FEF7A4FB00BF00BF12E000BF00BFFEF7FF
:101A700099FB804600BF00BF05F120060020B08121
:101A8000AD6900BF00BF4046FEF790FB00BF00BF3E
:101A9000002DEAD103F084F803F0FEFA002038802C
:101AA000BDE8F081B4000020AE000020E600002078
:101AB000F80000200C01002018010020B4F90020DB
:101AC00000010020D400002010B50348006810B1C8
:101AD00001480068804710BD900000202DE9FF4FAD
:101AE00087B004469046DDE91BA5DDE91496179FF3
:101AF0000020039083480078002805DD47F24A1053
:101B000028800BB0BDE8F08F1CB947F2AD102880DB
:101B1000F7E7B8F1000F03D147F24F102880F0E744
:101B20001EB946F62F602880EBE7774800688742A9
:101B300003D246F630602880E3E71698B84203D314
:101B400046F631602880DCE7B9F1400F03D346F256
:101B500073202880D5E7B9F1000F06D16B48844285
:101B600003D046F273202880CBE7B9F13F0F06D1AE
:101B70006748844203D046F273202880C1E720469C
:101B800002F0D2F9002028800AF0010090B10AF09A
:101B9000020078B105960020069008E00021059823
:101BA00001600598001D05900698401C0690069857
:101BB000B842F3D3169806EB80000490CDE9007A82
:101BC00032464046049B0A9900F026FB0590C4F873
:101BD00028800A98E0620898206284F83790059877
:101BE00020600498A060199860651A986060666229
:101BF000A763A4F83CA04FF0000B08E0002104F11B
:101C00007C0040F82B100BF1010000F0FF0BBBF142
:101C1000000FF3D004F16400189901F099FA2046FE
:101C200000F080F800BF00BF00BFFEF7BBFA0390D2
:101C300000BF00BF37480078401C3649087000BF1D
:101C400000BF0398FEF7B2FA00BF00BF00BF94F8D0
:101C5000370001F09DFC204601F0B8FD204602F05F
:101C600019F92D480088401C2B4908802B48007822
:101C700001282DD000BF00BF00BFFEF793FA0390EC
:101C800000BF00BF23480078401E22490870084664
:101C90000078A0B922480088002809DD00BF00BFF5
:101CA0000398FEF783FA00BF00BF01F0DBFD0DE0F3
:101CB00000BF00BF0398FEF779FA00BF06E000BF3F
:101CC00000BF0398FEF772FA00BF00BF00BF18E71D
:101CD00000BF00BF00BFFEF765FA039000BF00BF62
:101CE0000C480078401E0B49087000BF00BF0398E5
:101CF000FEF75CFA00BF00BF00BFFFF74BFD00BF5F
:101D0000FFE60000A0000020D8780008F4F80020CA
:101D100034F80020DA00002004010020A100002097
:101D2000AC00002010B504460348006818B12046F6
:101D300001490968884710BD8000002070B504463D
:101D40000D46002667480078002803DD47F24E1054
:101D5000288070BD6448844203D147F24C1028802B
:101D6000F7E76248844203D147F24D102880F0E73C
:101D70007CB900BF00BFFEF715FA064600BF00BFE2
:101D80005B48046800BF00BF3046FEF70FFA00BF93
:101D900000BF00BF00BF00BFFEF704FA064600BF49
:101DA00000BF54480078401C5249087000BF00BF73
:101DB0003046FEF7FBF900BF00BF00BF94F83600C5
:101DC00008282DD2DFE800F004090E10080A0F11D0
:101DD000204601F019FD54E053E000BF204602F018
:101DE000C3FE4EE000BF00BF00BF204602F0BCFEB5
:101DF00094F83400082810D2DFE800F00407050842
:101E0000090A0B0600BF00BF08E000BF00BF00BF0B
:101E100000BF204601F0EDFA00E000BF00BF30E057
:101E200000BF00BF00BFFEF7BDF9064600BF00BF00
:101E300030480078401E2F49087008460078A0B945
:101E40002D480088002809DD00BF00BF3046FEF79E
:101E5000ADF900BF00BF01F005FD0DE000BF00BF00
:101E60003046FEF7A3F900BF06E000BF00BF3046D2
:101E7000FEF79CF900BF00BF00BF46F62D6028802A
:101E800067E700BF04F1640001F040F9204600F06C
:101E900037F8204602F016F818480088401E174907
:101EA0000880204602F040F8FF2084F8360000BF8A
:101EB00000BF00BFFEF776F9064600BF00BF0D4821
:101EC0000078401E0B49087000BF00BF3046FEF787
:101ED0006DF900BF00BF00BF00202880FFF75AFC4B
:101EE00000BF36E7A000002034F80020F4F80020FE
:101EF00028010020DA000020AC00002004010020AE
:101F000010B504460348006818B120460149096825
:101F1000884710BD8400002010B5044603480068BF
:101F200018B1204601490968884710BD8800002083
:101F30002DE9F04780460E4614461D464FF0000935
:101F40007D480078002805DD46F2AE10288000208C
:101F5000BDE8F0871EB1B6F5004F02D100E000BF2A
:101F600004E045F6256028800020F1E700BF0CB1B1
:101F70000020206000BF00BFFEF714F9814600BFBB
:101F800000BF6E480068406CA8B36C480068406CA5
:101F9000401E6A490968486468480068476C1CB17B
:101FA00066480068006C2060FEF7B0FD6349096870
:101FB000096C401A61490968C1F8A4005F480068CB
:101FC000D0F8A8005D490968D1F8A410884207D26A
:101FD0005A480068D0F8A40058490968C1F8A80018
:101FE00000BF00BF4846FEF7E1F800BF00BF002079
:101FF00028803846ACE7FFE706F4004058B100BF40
:1020000000BF4846FEF7D2F800BF00BF46F2B0104E
:10201000288000209CE74A48007800280BDD00BF9C
:1020200000BF4846FEF7C2F800BF00BF46F6635047
:10203000288000208CE700BF41480078401C4049C0
:10204000087000BF00BF4846FEF7B0F800BF00BFF1
:1020500000BF434607220021084601F00FF900BFE8
:1020600000BF00BFFEF79EF8814600BF00BF3448A6
:102070000078401E3249087000BF00BF4846FEF796
:1020800095F800BF00BF00BFFFF784FB00BF00BF93
:10209000FEF788F8814600BF00BF2848006890F826
:1020A000350020B1012826D0032834D12CE0FCB122
:1020B00022480068006C2060FEF728FD1F4909686F
:1020C000096C401A1D490968C1F8A4001B48006842
:1020D000D0F8A80019490968D1F8A410884207D29D
:1020E00016480068D0F8A40014490968C1F8A8008F
:1020F0000020288013E01CB110480068006C2060AC
:1021000046F2A91028800AE00CB10020206047F2B6
:10211000D920288003E046F62E60288000BF00BF4B
:1021200006480068476C00BF00BF4846FEF73EF80F
:1021300000BF00BF38460BE7A000002028010020A8
:10214000DA0000202DE9F04705460E4617461C46EA
:102150004FF0000A2E480078002804DD47F259109D
:102160002080BDE8F0871EB946F2D5202080F8E730
:102170001FB946F2D5202080F3E700BF00BFFEF76D
:1021800011F8824600BF00BF0DB9224805682868D3
:1021900068B900BF00BF5046FEF708F800BF00BF97
:1021A00000203060386047F252102080D9E795F85F
:1021B0003C0000F0010068B900BF00BF5046FDF7C9
:1021C000F5FF00BF00BF00203060386047F25410B8
:1021D0002080C6E700BF00BF5046FDF7E7FF00BF05
:1021E00000BF4FF00008D5F8249003E009F104097E
:1021F00008F10108D9F800000028F7D0C6F80080DF
:10220000A86BA0EB080038600020208000BFA8E782
:10221000A000002028010020F0B50446DDE90556A5
:1022200002EB850020F007004FF0807C071F384646
:10223000C7F800C0071F38463C60DFF8A8C0071F7A
:102240003846C7F800C04FF0123C071F3846C7F8A1
:1022500000C04FF0033C071F3846C7F800C04FF0DE
:10226000023C071F3846C7F800C0071F38463B60CE
:10227000071F384639604FF0113C071F3846C7F832
:1022800000C04FF0103C071F3846C7F800C04FF0A1
:10229000093C071F3846C7F800C04FF0083C071F2D
:1022A0003846C7F800C04FF0073C071F3846C7F84C
:1022B00000C04FF0063C071F3846C7F800C04FF07B
:1022C000053C071F3846C7F800C04FF0043C071F05
:1022D0003846C7F800C06FF0020C071F3846C7F831
:1022E00000C0F0BD594300087FB505460C461248B2
:1022F000854203D147F25B1020807FBD0F488542A5
:1023000003D147F25C102080F7E70D4800780028E1
:102310000BDD002000900190034602462946CDE9DE
:102320000204084800F076FCE7E72146284602F060
:1023300081FA00BFE1E7000034F80020F4F8002043
:10234000A00000205453555310B51548006810B133
:10235000134800688047FEF7D9FB0446114800681F
:1023600011490968884215D00E480068D0F89800D5
:10237000201A0C490968C1F894000A480068D0F88E
:102380009C0008490968D1F8941008440549096877
:10239000C1F89C0004480068C0F8984010BD0000D7
:1023A00094000020280100202C0100202DE9F0419C
:1023B00005460E46144600273F480078002804DDF5
:1023C00047F275202080BDE8F0813C480078002865
:1023D00003DD46F663502080F5E736B1022E05D0C6
:1023E000042E0AD0082E09D101E000BF00BF1DB99C
:1023F00047F27E202080E6E704E003E045F6256012
:102400002080E0E700BF00BF00BF00BFFDF7CAFEAD
:10241000074600BF00BF29480078401C27490870C4
:1024200000BF00BF3846FDF7C1FE00BF00BF00BFC0
:1024300001202349096881F836002346324629469F
:102440001F48006802F0B2FA2088A8B100BF00BFA0
:1024500000BFFDF7A7FE074600BF00BF1748007882
:10246000401E1649087000BF00BF3846FDF79EFEAB
:1024700000BF00BF00BFA6E71148006801F0C4F923
:1024800000BF00BF00BFFDF78DFE074600BF00BFC5
:102490000A480078401E0949087000BF00BF38464E
:1024A000FDF784FE00BF00BF00BFFFF773F90020F7
:1024B000208000BF87E70000A0000020DA00002095
:1024C000280100202DE9FF5F05460E461746984675
:1024D000DDE90EA40020009072480078002804DD99
:1024E00047F275202080BDE8FF9F6F4800780028E4
:1024F00003DD46F663502080F5E70AF00E0BBBF1D2
:10250000000F09D0BBF1020F07D0BBF1040F10D0B0
:10251000BBF1080F0ED101E000BF00BFB8F1000F02
:1025200006D12FB926B91DB947F27E202080DAE7FF
:1025300004E003E045F625602080D4E700BF2AF0E0
:102540001E0008B1012000E000200390039801283C
:1025500003D145F625602080C5E7CAF3001002903C
:102560000298C0B9B8F57A7F03D347F27B20208068
:10257000B9E73B2F03DD47F27A202080B3E73B2EFB
:1025800003DD47F279202080ADE7632D12DD47F2AD
:1025900078202080A7E742F20F70864203DD47F2E1
:1025A000792020809FE7B5F57A7F03DB47F278201A
:1025B000208098E73D48D0F800904FF4FA70B0FBC7
:1025C000F9F0404400FB09F04FF47A71B0FBF1F1EF
:1025D0004FF461606843C6EB061200EB820038449A
:1025E00000FB091001900198002856D000BF00BFE1
:1025F00000BFFDF7D7FD009000BF00BF2A4800785C
:10260000401C2949087000BF00BF0098FDF7CEFDAF
:1026100000BF00BF00BF01202549096881F83600CE
:1026200023465A4622480199006802F0BFF92088E3
:10263000A8B100BF00BF00BFFDF7B4FD009000BF10
:1026400000BF19480078401E1749087000BF00BF3E
:102650000098FDF7ABFD00BF00BF00BF43E7144883
:10266000006801F0D1F800BF00BF00BFFDF79AFD80
:10267000009000BF00BF0C480078401E0A49087057
:1026800000BF00BF0098FDF791FD00BF00BF00BF75
:10269000FFF780F80020208002E047F27E202080B3
:1026A00000BF20E7A0000020DA000020DC7800084E
:1026B0002801002010B586B000F01EF8FEF726FABB
:1026C000044605A800210091CDE9011403900748B4
:1026D000007800EB4000064A02EB800100231A4616
:1026E000044800F097FA06B010BD0000CE000020AC
:1026F000C0F900205449434B10B50348006810B19D
:1027000001480068804710BD98000020254A2649EE
:10271000264A274A2749284A2848294A294A2A4A2C
:102720002A4A2B482B482C482C4A2D482D4A2E4803
:102730002E4A2F482F4830483048314A314A324AD1
:102740003248334A334A34483448354835483648A5
:1027500036483748374A384A384A394A39483A4871
:102760003A483B4A3B4A3C4A3C483D483D483E4942
:102770003E483F4A3F4A404A404A414A414A424A0B
:102780004248434A434A44484448454A454A4648E1
:10279000464A474A47484848484800BF00BF00BF2C
:1027A0007047000020790008887A00082179000825
:1027B0002279000824790008287900082C7900087B
:1027C00029790008547900085579000856790008DD
:1027D000587900085A7900085C7900085E79000889
:1027E00060790008807900088279000884790008FF
:1027F00086790008887900088A7900088C790008B1
:10280000B8790008B9790008BA790008BC790008DD
:10281000BE790008BF790008C0790008C2790008B5
:10282000C4790008C6790008C8790008CA79000888
:10283000CC790008FC790008FD790008FE790008D1
:10284000FF790008007A0008027A0008047A00087C
:102850002C7A00082D7A00082E7A00082F7A0008BA
:10286000307A0008327A0008347A0008387A000892
:10287000397A00083A7A00083B7A00083C7A000866
:102880003D7A00083E7A00083F7A0008407A000846
:10289000427A0008437A0008447A0008467A000821
:1028A000487A0008497A00084C7A0008807A0008C3
:1028B000817A0008827A0008847A0008867A000803
:1028C0000021034A1160034A118001807047000013
:1028D000B8000020BC0000202DE9F04F85B0044670
:1028E000894692469B46DDF838800020009000BF64
:1028F00000BFFDF757FC009000BF00BFBAF1000F0A
:102900000AD0BAF1010F0DD0BAF5004F05D06FF41F
:102910000040504460B906E000BF206A40EA090068
:10292000206214E000BF206A20EA090020620EE065
:1029300000BF00BF0098FDF739FC00BF00BF45F69F
:102940002560A8F80000002005B0BDE8F08F00BFAA
:10295000C4F824B004F1080001900198008958B926
:1029600000BF00BF0098FDF721FC00BF00BF0020A2
:10297000A8F80000206AE7E700BF61480078401C23
:102980005F49087000BF00BF0098FDF70FFC00BF53
:1029900000BF00BF01980768BD687FE078680290BB
:1029A00095F8880000F00F0003900398012821D0CB
:1029B00002282ED0042802D0082836D10EE0206A42
:1029C000D5F8801000EA0106D5F88000B04204D1A5
:1029D0005A463146284600F097F859E0206AD5F863
:1029E000801000EA010626B15A463146284600F01A
:1029F0008BF84DE0D5F88000216A20EA0106D5F871
:102A00008000B04204D15A463146284600F07CF896
:102A10003EE0D5F88000216A20EA010626B15A4638
:102A20003146284600F070F832E000BF00BF00BF1A
:102A3000FDF7B8FB009000BF00BF31480078401E92
:102A40002F49087008460078A0B92E480088002851
:102A500009DD00BF00BF0098FDF7A8FB00BF00BF65
:102A600000F000FF0DE000BF00BF0098FDF79EFBE7
:102A700000BF06E000BF00BF0098FDF797FB00BF56
:102A800000BF00BF43F6FF20A8F8000000205BE76E
:102A900000BF029F0FB1BD6800E00025002D7FF44C
:102AA0007DAF00BF00BF00BFFDF77CFB009000BF03
:102AB00000BF13480078401E1149087000BF00BFD6
:102AC0000098FDF773FB00BF00BF00BF0AF4004091
:102AD00008B9FEF75FFE00BF00BFFDF763FB009083
:102AE00000BF00BF206A049000BF00BF0098FDF740
:102AF0005DFB00BF00BF0020A8F80000049823E79A
:102B0000DA000020AC00002070B504460E461546E1
:102B100034342665002060702070E560A078343C75
:102B2000082816D2DFE800F004050809070610118E
:102B300000BF00BF00BF0DE000BF204601F05EFBFC
:102B4000002084F8360005E000BF042084F8360039
:102B500000E000BF00BF204600F04BFC70BD00004D
:102B6000002400BF19E000BF00BFFDF71BFB0446B7
:102B700000BF00BF09480068401C084908600848B9
:102B80000068401C0649086000BF00BF2046FDF7F2
:102B90000DFB00BF00BFFEF7C5FCE4E79C00002072
:102BA000E800002010B58AB0044600200E490860F5
:102BB0000B2000210591CDE90704069108460B4939
:102BC00009680B4A12680B4B1B68CDE90132CDE94D
:102BD00003103F200023084A08A100900C48FEF78C
:102BE0007DFF0AB010BD00009C0000208478000822
:102BF000807800087C780008612B000875432F4F0F
:102C0000532D4949492049646C65205461736B0018
:102C100034F800202DE9F84F04460D4616461F46AD
:102C2000DDE90BABDDF82890DDF834800020009062
:102C300000BF00BFFDF7B6FA009000BF00BF2B48F1
:102C400000882B49098888423EDA28480088401CC1
:102C500026490880274800880988884203DA2348E3
:102C600000882449088024480068046022480068DD
:102C7000856021480068C6601F48006807821E48BA
:102C80000068C0F814901C480068A0F818A01A4802
:102C90000068C0F81CB01848006840681649086011
:102CA000012016490881164808604860002000F09D
:102CB0006FFC1448007818B1124800781249087067
:102CC0000020A8F8000008E010480088401C0F49C8
:102CD000088044F25360A8F8000000BF00BF0098CD
:102CE000FDF764FA00BF00BFBDE8F88FAC0000201C
:102CF00090780008AE000020A4000020C0F9002059
:102D0000F4F80020CE000020D0000020B000002009
:102D10003EB555480068554A0168881A914279D0F5
:102D20000FDC5348084400283ED052490844A8B15B
:102D300051490844002860D05049084400286AD10D
:102D40003FE04F490844002850D04E49084400282D
:102D500062D04D4908440028F1D110E002A8424D4C
:102D600000902D68EB69404D2D682A8B3E4D2D68F3
:102D700069693D4D2D68A868FFF7AEFD71E002A9B5
:102D800039480068C069384DCDE900012D682B8BAA
:102D9000354D2D682A8A344D2D68E968324D2D68ED
:102DA000A86800F025FC5CE02F4B1B68DA692E4B0D
:102DB0001B68198B2C4B1B68986802AB00F088FDD0
:102DC0004FE002A928480068C069274DCDE90001FD
:102DD0002D682B8B244D2D682A8A234D2D68E96898
:102DE000214D2D68A86801F003F93AE01E490968F1
:102DF000886802A901F010FA33E01B4B1B68DA69FE
:102E0000194B1B68198B184B1B68986802AB01F0B3
:102E1000AFFA26E007E023E013490968886802A9B1
:102E200001F008FD1DE01048006802AB0021C269F6
:102E3000164801F09DFA16480068401E14490860C3
:102E40000846006858B9134800680860FDF75EFE40
:102E5000044602AB224600210F4801F089FA00E047
:102E600000BF00BF3EBD0000A80000205449434BF6
:102E7000ADBAB2BE0DF90BFAF2F8F7FF0006F6FF95
:102E800000F7FDF700FFEFFF03FE0FFE80FD0020BF
:102E9000240100202001002040FE0020002700BF68
:102EA0004CE0002648E000BF00BFFDF77BF9074675
:102EB00000BF00BF2248008888B90020214908814E
:102EC0000860486000F076FB00BF00BF3846FDF7A1
:102ED0006DF900BF00BFFEF75DFC01262CE000BFCE
:102EE00000BF3846FDF762F900BF00BFFDF70EFED8
:102EF0000546FFF70DFFFDF709FE441B1248006869
:102F0000A04201D21048046000BF00BFFDF74AF99B
:102F1000074600BF00BF0D48006840680B490860C5
:102F200007480088401E0649088000BF00BF384699
:102F3000FDF73CF900BF00BF002EB4D0B1E70000A0
:102F4000AC000020C0F90020B4000020A800002040
:102F5000F0B589B005460020314908803148006845
:102F600020B944F25260288009B0F0BD2E48008894
:102F7000022803DA44F254602880F5E700202B4948
:102F80000860284804682646203600270CE02848B8
:102F900020600020A060E060208260612083666085
:102FA00020342036781C87B21F4800888742EEDB29
:102FB000203C1C48066866601E4806601E48066085
:102FC00000201E4908801E4908801E48006818B964
:102FD00044F255602880C7E71B4800681B49096810
:102FE000884203D244F256602880BDE703200021C6
:102FF0000591CDE90705069113480068144A126847
:10300000104B1B68CDE90301CDE9013200910B465D
:10301000104A11A11748FEF761FD00BFA4E70000A8
:10302000B00000208C78000890780008B4000020E0
:103030004E4F4E45A4000020A8000020AC00002008
:10304000AE00002098780008A0780008D878000822
:103050009C7800089D2E000875432F4F532D494939
:103060004920495352205175657565205461736B31
:1030700000000000F4F800200021034A1160034A18
:103080001180018070470000C0000020C4000020B3
:1030900070B501461A4D2D681DB945F21E750D809B
:1030A00070BD184D2D881DB945F21D750D80F7E7CF
:1030B000134D28682A681032124D2D886D1EACB24F
:1030C000002308E00260002545600581C5601030DE
:1030D00010325D1CABB2A342F4DB002505604560F5
:1030E0000581C560064D2D68074E3560054D2D885C
:1030F000B5800025F58035810D8000BFD0E7000048
:10310000BC780008B4780008B4F9002010B5014676
:1031100048894B89002B17DD0A680C4B1B6813602C
:103120000A4C4B6823602346DB884C891B1B074CE9
:10313000E38023469B884C892344044CA3800023CE
:103140004B818B810B604B6010BD0000B4F90020F7
:10315000018100224281828102604260704700004A
:103160002DE9F0410D46DDE90674B0F80AC0B0F86B
:103170000880C44505DB46F2935CA4F800C0BDE8B6
:10318000F081DFF8DCC0BCF804C0BCF1000F04D152
:1031900045F21D7CA4F800C0F1E7DFF8C4C0DCF8FC
:1031A0000010DFF8BC80D1F800C0C8F800C0C446E9
:1031B000BCF804C0ACF1010CA8F804C0C446BCF8CB
:1031C00006C00CF1010CA8F806C0C446BCF808C043
:1031D000B8F80680C44507DADFF884C0BCF806C03A
:1031E000DFF87C80A8F808C0B0F80AC0BCF1000F76
:1031F0000AD1016041604FF0010CA0F80AC04FF005
:10320000000CC1F800C017E003F0100CBCF1000F77
:1032100007D10668316001604FF0000CC1F800C0B2
:1032200004E0D0F804C0C1F800C04160B0F80AC0A2
:103230000CF1010CA0F80AC0B0F80CC0B0F80A807C
:10324000C44503DAB0F80AC0A0F80CC04D600A818A
:10325000CF604FF0000CA4F800C000BF8FE7000063
:10326000B4F900200021034A1160034A1180018053
:1032700070470000C8000020CC0000202DE9F0417C
:1032800005460C4616461F461548006880F834600F
:1032900000201349096881F8350039461048006854
:1032A00000F0DCFD6CB104F10808EC600122294655
:1032B0000B48006800F016F82946404600F066F812
:1032C00006E0002006490968C887054909680863BF
:1032D00003480168204600F019F8BDE8F0810000BD
:1032E0002801002010B5C287016300230AE00024F2
:1032F0004C600C600C614C610C83CC6188602031A7
:103300005C1CA3B29342F2DB10BD000030B548B1A3
:103310004568C1F8BC5000F10804226893681D6A32
:10332000C56113E091F83450022D02D0072D08D169
:1033300003E007A5C1F8BC5007E007A5C1F8BC50E1
:1033400003E008A5C1F8BC5000BF00BF30BD0000BD
:103350005461736B205100005461736B2053656D91
:10336000000000002000000030B507A5C1F8BC50E7
:1033700000F1080422681AB193681D6AC56101E072
:1033800001A5C56130BD000020000000F0B58E68C9
:1033900096F8375007893FB90127078100274F600A
:1033A0000F600160416023E007897F1C078102688C
:1033B00006E0946894F83770AF4200DD02E052688E
:1033C000002AF6D100BF32B900274F6043680B6076
:1033D000596041600CE017682FB9116000270F6039
:1033E0004A60016004E013680B604A605960116034
:1033F000F0BD2DE9F0410446256BE68F0AE0D5F8D3
:103400000C8008F108072946384600F00AF82035F4
:10341000701E86B2002EF2DC0020E0872063BDE83B
:10342000F08110B50489012C03D1002404604460AC
:1034300011E00C6824B94A680024146002600AE0B4
:103440004C6824B90B6800245C60436003E00B689F
:103450004A685A6013600489641E048100244C6029
:103460000C6010BD2DE9F84306460C4617469846F9
:10347000089D94F83600082850D2DFE800F00405D3
:10348000080906072B2C00BF00BF00BF47E000BFA4
:1034900094F83400032807D143463A462146304683
:1034A000009500F03FF803E0E765A4F8608025642C
:1034B00036B12046FFF79DFF21463046FFF754FF07
:1034C000204600F09BFE00203434A070607004F8A9
:1034D000340924E000BF94F83400032807D14346A0
:1034E0003A4621463046009500F01CF803E0E765B7
:1034F000A4F860802564204601F036FB36B12046F2
:10350000FFF777FF21463046FFF72EFF04203434C3
:10351000A0700020607004F8340900E000BF00BF14
:10352000BDE8F883F0B50446059E086BCD8F0AE030
:10353000C768A74204D1046142610383C66104E005
:1035400020306F1EBDB2002DF2DC00BFF0BD0000C8
:1035500070B50025074C03E005F12000C5B2241D1D
:1035600020680028F8D02068FCF727FE2844C5B260
:10357000284670BD78000020002004E00021034AA6
:1035800042F82010401C0228F8D370477800002031
:1035900030B5420900F01F030121C3F11F04A1400F
:1035A000034C54F822400C43014D45F8224030BDF5
:1035B0007800002030B5420900F01F030121C3F15B
:1035C0001F04A140034C54F822408C43014D45F8A0
:1035D000224030BD780000200021034A1160034AD8
:1035E0001180018070470000D4000020D800002026
:1035F0002DE9F04F85B007468A4693461C460020C9
:10360000029000BF00BF00BFFCF7CCFD029000BFDE
:1036100000BF48480078401C4649087000BF00BF02
:103620000298FCF7C3FD00BF00BF00BF07F108060A
:103630003089002842D104F0100010B94FF0000882
:1036400001E04FF01008DDE90E0143465A46CDE98E
:103650000001514607F12000FFF782FD00BF00BFC7
:1036600000BFFCF79FFD029000BF00BF314800780B
:10367000401E3049087008460078A0B92E480088DE
:10368000002809DD00BF00BF0298FCF78FFD00BFD6
:1036900000BF00F0E7F80DE000BF00BF0298FCF7A4
:1036A00085FD00BF06E000BF00BF0298FCF77EFD6D
:1036B00000BF00BF00BF05B0BDE8F08F04F400708C
:1036C00008B1358900E00125D6F8009011E0D9F85D
:1036D00008000390D9F8040004900E985B46524607
:1036E000009038460399FFF7BDFEDDF81090681E84
:1036F00085B2002DEBD100BF00BF00BFFCF752FD2B
:10370000029000BF00BF0B480078401E09490870B6
:1037100000BF00BF0298FCF749FD00BF00BF00BF1B
:1037200004F4004008B9FEF735F800210F98018035
:1037300000BFC0E7DA000020AC00002000210AE052
:1037400001EB4102054B03EB820000220281026083
:1037500042604A1CD1B24029F2D37047C0F9002020
:1037600010B5044694F83700FFF712FF94F83700BD
:1037700005490978884203D1204600F027F802E085
:10378000204600F003F810BDCE00002010B590F8E0
:10379000373003EB43030C4C04EB83010B893BB93B
:1037A00001230B810023C36003610860486009E0C6
:1037B0000B895B1C0B810B68C360002303610A68E3
:1037C0001061086010BD0000C0F9002010B590F82D
:1037D000373003EB43030B4C04EB83010B893BB9FC
:1037E00001230B810023C36003610860486008E087
:1037F0000B895B1C0B810023C3604A680261D060A7
:10380000486010BDC0F900202DE9F041054695F84B
:10381000370000EB4000124901EB80042F69EE688D
:1038200087B946B9002020812060606095F8370094
:10383000FFF7C0FE0EE02089401E2081002030618D
:10384000266007E02089401E2081FE600EB9676077
:1038500000E0376100202861E860BDE8F0810000E9
:10386000C0F9002010B5002400BFFCF79BFC044603
:1038700000BF00200C4908700C480D49086008463C
:103880000068D0F89000401C0968C1F89000094811
:103890000068401C07490860FDF79FF800BF2046FC
:1038A000FCF784FC00BF10BDCF000020F4F800201E
:1038B0002C010020FC0000200021034A1160034A73
:1038C0001180018070470000DC000020E000002033
:1038D0002DE9FF5F0446884691461D460020019071
:1038E00000BF00BFFCF75EFC019000BF00BF04F109
:1038F0000807388900284FD10420012804D0022865
:1039000014D0042834D123E0206AFF280DD100BF51
:1039100000BF0198FCF74AFC00BF00BF46F6C55047
:103920002880002004B0BDE8F09F22E04FF6FF7130
:10393000206A88420BD100BF00BF0198FCF736FC1B
:1039400000BF00BF46F6C55028800020EAE710E01F
:10395000206A401C58B900BF00BF0198FCF726FC44
:1039600000BF00BF46F6C55028800020DAE700E01F
:1039700000BF00BF206A401C2062D4F820A0C4F819
:10398000249000BF00BF0198FCF710FC00BF00BFEF
:10399000002028805046C5E700BF25480078401C1D
:1039A0002349087000BF00BF0198FCF7FFFB00BF70
:1039B00000BF00BF08F4007008B13E8900E0012696
:1039C000D7F800B011E0DBF808000290DBF8040043
:1039D000039000231A46CDF8009020460299FFF785
:1039E00041FDDDF80CB0701E86B2002EEBD1D4F88C
:1039F00020A000BF00BF00BFFCF7D4FB019000BFB8
:103A000000BF0B480078401E0949087000BF00BF86
:103A10000198FCF7CBFB00BF00BF00BF08F40040DB
:103A200008B9FDF7B7FE0020288050467AE700006D
:103A3000DA00002086B00020009000BF06E0C349F5
:103A40000968480001AA0021FEF7B0FCC0480078D0
:103A50000128F4D101A8FDF7A1FF0027BD480068A7
:103A6000BA490968884205D9BA480068B74909685F
:103A7000B0FBF1F727B9B74800680A21B0FBF1F7AE
:103A800062E1FDF743F8804600BF00BFFCF78AFB08
:103A9000009000BF00BFB0480068B0490860002037
:103AA000AD49086000BF00BF0098FCF77FFB00BF76
:103AB00000BFAB480068A9490968884248D9A848AE
:103AC0000068A849884205D242F210700390012094
:103AD000029023E0A2480068A349884205D24FF42F
:103AE0007A7003900A20029018E09D4800689F4970
:103AF000884203D26420039002900FE09848006847
:103B00009B49884205D20A2003904FF47A700290B4
:103B100004E00120039042F2107002909048016886
:103B20000298B1FBF0FA8D49039809684843B0FB4D
:103B3000FAF042F21071081A8E4908808E48008807
:103B40000988884208DA8B4800888B49088003E09E
:103B500042F2107087490880FDF7B6FF002500BFCC
:103B600000BFFCF71FFB009000BF00BF8348046844
:103B700000BF00BF0098FCF719FB00BF00BF5AE070
:103B800000BF00BF00BFFCF70DFB009000BF00BFEF
:103B90007B480078401C7A49087000BF00BF00983D
:103BA000FCF704FB00BF00BF00BF54F89C0F60602F
:103BB000002044F89C0900BF00BF00BFFCF7F2FAE8
:103BC000009000BF00BF6E480078401E6C4908702E
:103BD00008460078A0B96B480088002809DD00BFBE
:103BE00000BF0098FCF7E2FA00BF00BFFFF73AFE03
:103BF0000DE000BF00BF0098FCF7D8FA00BF06E058
:103C000000BF00BF0098FCF7D1FA00BF00BF00BFA3
:103C1000D4F8A000054400BF00BFFCF7C3FA009031
:103C200000BF00BFD4F8B84000BF00BF0098FCF749
:103C3000BDFA00BF00BF002CA2D145B34948854260
:103C400005D242F2107005904FF0010B1BE0464880
:103C5000854205D24FF47A7005904FF00A0B12E0BE
:103C60004248854203D26420059083460BE04048D9
:103C7000854204D20A2005904FF47A7B03E00120AC
:103C8000059042F2107BB5FBFBF0049003E00020AE
:103C900005900120049000BF00BFFCF783FA00905C
:103CA00000BF00BF3548046800BF00BF0098FCF7A4
:103CB0007DFA00BF00BF2BE0D4F8A000059948436F
:103CC0000499B0FBF1F086B242F21070864200D93E
:103CD0000646A4F88C60B4F88E00B04201DAA4F86D
:103CE0008E6001AB04F1AC02111D2046FEF72AFAEA
:103CF00000BF00BFFCF756FA009000BF00BFD4F829
:103D0000B84000BF00BF0098FCF750FA00BF00BFEA
:103D1000002CD1D11C480078012805D100201A4977
:103D2000087001A8FDF73AFEFCF7F0FEA0EB0809C9
:103D300016480068484502D21448C0F8009001AA0D
:103D400000213846FEF732FB9BE60000C4780008ED
:103D5000F4000020DC780008E8000020F0000020DB
:103D6000EC000020801A060000093D00005A6202A3
:103D70000084D717E4000020E600002000010020A6
:103D8000DA000020AC000020E2000020F800002053
:103D900010B58AB0044600201F4908601F4908601A
:103DA0001F4908601F4908701F4908701F480068B4
:103DB00020B946F62B6020800AB010BD1C48006870
:103DC0001C490968884203D246F62C602080F3E73C
:103DD000194800783F2803D346F62A602080EBE795
:103DE000032000210591CDE90704069108461049FA
:103DF0000968124A12680D4B1B68CDE90132CDE902
:103E000003100D48007800230D4A0EA100901248BF
:103E1000FDF764FE00BFCFE7E8000020F0000020BF
:103E2000EC000020F4000020E2000020C878000828
:103E3000D0780008D8780008C0780008CC7800084E
:103E4000353A000875432F4F532D49494920537483
:103E50006174205461736B00C0FC002038B50446C7
:103E60000D4685B16B4602222946204600F09EFD94
:103E7000BDF8000018B9032084F8360006E00220DF
:103E800084F8360002E0022084F836002046FFF76E
:103E9000BBFC38BD0021C0F8B4100949096819B944
:103EA0000021C0F8B81007E005490968C0F8B8104B
:103EB00003490968C1F8B40001490860704700006F
:103EC00000010020D0F8B420D0F8B8104AB90D4B4A
:103ED000196011B10023C1F8B4300023C0F8B83024
:103EE0000FE029B90023C2F8B830C0F8B43008E0B8
:103EF000C2F8B810C1F8B4200023C0F8B830C0F838
:103F0000B4307047000100200021044A1160044AC7
:103F10001180044A116001807047000000010020F8
:103F200004010020FC00002070B504460020206041
:103F3000A0606060E06020616061A061E06129A034
:103F4000206200206062A062E0622063E08720645B
:103F5000E065A4F86000002104F16400FFF7F8F8C0
:103F6000002044F8740F6060E060A0822061743C1F
:103F7000002506E0002104F17C0040F82510681CB3
:103F8000C5B2002DF6D00020343420612067606770
:103F9000606084F85600E067A06720814FF0004021
:103FA00060610020A061E06120626062A4F85800B6
:103FB000A4F85A00E0652066FCF7A8FD0646666690
:103FC0000020A06620706070A0704020E07000208B
:103FD000C4F88000C4F8840004A0C4F88800343C0D
:103FE00070BD00003F5461736B00000020000000B2
:103FF0002DE9FC4704460F4690469946DDE90A65DF
:104000004FF0000A00BF00BF00BFFCF7CBF88246AC
:1040100000BF00BF76480078401C7549087000BF9B
:1040200000BF5046FCF7C2F800BF00BF00BF0CB98C
:10403000704804680020288094F8360008287DD253
:10404000DFE800F004053E3F0607404100BF00BF27
:1040500000BF4B464246394604F16400CDE9006595
:10406000FFF77EF800BF00BF00BFFCF79BF8824659
:1040700000BF00BF5E480078401E5D4908700846DA
:104080000078A0B95C480088002809DD00BF00BFA7
:104090005046FCF78BF800BF00BFFFF7E3FB0DE0D5
:1040A00000BF00BF5046FCF781F800BF06E000BF2C
:1040B00000BF5046FCF77AF800BF00BF00BF93E096
:1040C00000BF00BF00BF94F83400022821D143464E
:1040D0003A46214600200096FFF7C4F900BF00BF12
:1040E00000BFFCF75FF8824600BF00BF4048007881
:1040F000401E3F49087000BF00BF5046FCF756F80D
:1041000000BF00BF00BF09F4004090BBFDF742FBB9
:1041100038E04B464246394604F16400CDE900657B
:10412000FFF71EF800BF00BF00BFFCF73BF8824658
:1041300000BF00BF2E480078401E00E023E02C495D
:10414000087008460078A8B92B480088002809DDC7
:1041500000BF00BF5046FCF729F800BF00BFFFF7C3
:1041600081FB0EE000BF00BF5046FCF71FF800BF08
:1041700007E007E000BF00BF5046FCF717F800BF9C
:1041800000BF00BF30E000BF00BF00BFFCF70AF86F
:10419000824600BF00BF16480078401E14490870D0
:1041A00008460078A0B914480088002809DD00BF3F
:1041B00000BF5046FBF7FAFF00BF00BFFFF752FBFE
:1041C0000DE000BF00BF5046FBF7F0FF00BF06E068
:1041D00000BF00BF5046FBF7E9FF00BF00BF00BFB4
:1041E00046F62D60288000BF00BFBDE8FC870000B8
:1041F000DA00002028010020AC00002010B50446A1
:10420000204600F0B1FC94F8360000F0040010B92C
:104210002046FFF7A5FA10BD70B504460D460026EE
:1042200000BF00BFFBF7BEFF064600BF00BF002077
:10423000288094F8360008287BD2DFE800F00405D7
:1042400006071243556700BF00BF00BF00BF00BF95
:104250003046FBF7ABFF00BF00BF47F2531028808A
:1042600072E000BF3B480078401C3A49087000BF2C
:1042700000BF3046FBF79AFF00BF00BF00BF14F835
:104280008A0F401E207014F88A0928B9002084F88B
:1042900036002046FFF7B2FF00BF00BF00BFFBF7AC
:1042A00081FF064600BF00BF2A480078401E29490A
:1042B000087000BF00BF3046FBF778FF00BF00BFAB
:1042C00000BF41E014F88A0F401E207014F88A09DC
:1042D00010B9012084F8360000BF00BF3046FBF75C
:1042E00065FF00BF00BF2FE014F88A0F401E20704A
:1042F00014F88A0910B9022084F8360000BF00BF04
:104300003046FBF753FF00BF00BF1DE014F88A0FD3
:10431000401E207014F88A0910B9032084F8360072
:1043200000BF00BF3046FBF741FF00BF00BF0BE0FE
:10433000FFE700BF00BF3046FBF738FF00BF00BFFC
:1043400046F62D60288070BD00BFFDF723FA00BF40
:10435000F9E70000DA00002008B504480068FDF71E
:10436000DBFD69460020FDF7E9FC08BD28010020BF
:104370002DE9F8430446884617461D464FF00009CC
:1043800000BF00BF00BFFBF70DFF814600BF00BFAD
:10439000FE480078401CFD49087000BF00BF484639
:1043A000FBF704FF00BF00BF00BF0CB9F84804686A
:1043B00027640020288094F83600082871D2DFE8AE
:1043C00000F00405EBEC0607EDEE00BF00BF00BFF8
:1043D0000420012804D0022839D004286FD170E0CD
:1043E000606CFF2832D100BF00BF00BFFBF7DAFED0
:1043F000814600BF00BFE5480078401EE3490870D1
:1044000008460078A0B9E3480088002809DD00BF0D
:1044100000BF4846FBF7CAFE00BF00BFFFF722FA05
:104420000DE000BF00BF4846FBF7C0FE00BF06E03E
:1044300000BF00BF4846FBF7B9FE00BF00BF00BF8A
:1044400046F6C55028800020BDE8F88371E04FF69D
:10445000FF71606C884233D100BF00BF00BFFBF723
:10446000A1FE814600BF00BFC8480078401EC74972
:10447000087008460078A8B9C6480088002809DDF9
:1044800000BF00BF4846FBF791FE00BF00BFFFF72B
:10449000E9F90EE000BF00BF4846FBF787FE00BF0A
:1044A00007E08DE100BF00BF4846FBF77FFE00BF7D
:1044B00000BF00BF46F6C55028800020C4E737E0A3
:1044C00037E0606C401C88BB00BF00BF00BFFBF73B
:1044D00069FE814600BF00BFAC480078401EAB4972
:1044E000087008460078A0B9AA480088002809DDAD
:1044F00000BF00BF4846FBF759FE00BF00BFFFF7F3
:10450000B1F90DE000BF00BF4846FBF74FFE00BF0A
:1045100006E000BF00BF4846FBF748FE00BF00BFF3
:1045200000BF46F6C550288000208DE7FFE700E079
:1045300000BF00BF606C401C6064666C00BF00BFC1
:1045400000BFFBF72FFE814600BF00BF8F480078F9
:10455000401E8E49087008460078A0B98D48008832
:10456000002809DD00BF00BF4846FBF71FFE00BF63
:1045700000BFFFF777F90DE000BF00BF4846FBF72B
:1045800015FE00BF06E000BF00BF4846FBF70EFE69
:1045900000BF00BF00BF45E100BF00BF00BF94F8EF
:1045A0003400072823D100231A46214618460097D5
:1045B000FEF758FF666C00BF00BF00BFFBF7F2FDBF
:1045C000814600BF00BF71480078401E6F490870E7
:1045D00000BF00BF4846FBF7E9FD00BF00BF00BFBA
:1045E00008F40040002801D1FDF7D4F8E7E00420EA
:1045F000012804D0022838D004286ED16EE0606C07
:10460000FF2831D100BF00BF00BFFBF7CBFD8146C3
:1046100000BF00BF5D480078401E5C490870084636
:104620000078A0B95B480088002809DD00BF00BF02
:104630004846FBF7BBFD00BF00BFFFF713F90DE0D5
:1046400000BF00BF4846FBF7B1FD00BF06E000BF5A
:1046500000BF4846FBF7AAFD00BF00BF00BF46F6FB
:10466000C55028800020EFE670E04FF6FF71606CC7
:10467000884231D100BF00BF00BFFBF793FD8146E8
:1046800000BF00BF41480078401E404908700846FE
:104690000078A0B93F480088002809DD00BF00BFAE
:1046A0004846FBF783FD00BF00BFFFF7DBF80DE0D6
:1046B00000BF00BF4846FBF779FD00BF06E000BF22
:1046C00000BF4846FBF772FD00BF00BF00BF46F6C3
:1046D000C55028800020B7E638E036E0606C401C0A
:1046E00088BB00BF00BF00BFFBF75CFD814600BF79
:1046F00000BF26480078401E24490870084600780C
:10470000A0B924480088002809DD00BF00BF484642
:10471000FBF74CFD00BF00BFFFF7A4F80DE000BFA2
:1047200000BF4846FBF742FD00BF06E000BF00BFE8
:104730004846FBF73BFD00BF00BF00BF46F6C55033
:104740002880002080E6FFE700E000BF00BF606C2B
:10475000401C6064666C00BF00BF00BFFBF722FD19
:10476000814600BF00BF09480078401E0749087015
:1047700008460078D8B907480088002810DD00BF37
:1047800000BF4846FBF712FD00BF05E0DA0000203D
:1047900028010020AC00002000BFFFF763F80DE007
:1047A00000BF00BF4846FBF701FD00BF06E000BFA9
:1047B00000BF4846FBF7FAFC00BF00BF00BF31E076
:1047C00000BF00BF00BFFBF7EDFC814600BF00BF8C
:1047D00016480078401E1549087008460078A0B9B0
:1047E00013480088002809DD00BF00BF4846FBF7DA
:1047F000DDFC00BF00BFFFF735F80DE000BF00BFD4
:104800004846FBF7D3FC00BF06E000BF00BF4846A8
:10481000FBF7CCFC00BF00BF00BF46F62D60288030
:10482000002600BF00BF30460EE60000DA00002080
:10483000AC00002070B504460D46002600BF00BF46
:10484000FBF7B0FC064600BF00BF0CB94B4804683C
:104850004A48006884420ED14948007800280ADDA1
:1048600000BF00BF3046FBF7A1FC00BF00BF46F60B
:104870006350288070BD0020288094F836000828F6
:104880006CD2DFE800F004313F4D5B5C5D5E00BF41
:104890003B480078401C3A49087000BF00BF3046D2
:1048A000FBF784FC00BF00BF00BF042084F8360083
:1048B000012084F88A002046FEF7A6FF00BF00BF53
:1048C00000BFFBF76FFC064600BF00BF2C48007816
:1048D000401E2B49087000BF00BF3046FBF766FC46
:1048E00000BF00BF00BF44E0052084F8360001206F
:1048F00084F88A0000BF00BF3046FBF757FC00BFBA
:1049000000BF36E0062084F83600012084F88A00D3
:1049100000BF00BF3046FBF749FC00BF00BF28E0E6
:10492000072084F83600012084F88A0000BF00BF09
:104930003046FBF73BFC00BF00BF1AE000BF00BFE2
:1049400000BF94F88A00401C84F88A0000BF00BFB2
:104950003046FBF72BFC00BF00BF0AE000BF00BFE2
:104960003046FBF723FC00BF00BF46F62D602880D1
:1049700080E700BFFCF70EFF00BF7BE728010020A7
:10498000DA000020002108E0064A02EBC100002204
:1049900002608280C2804A1C91B2034A128891420E
:1049A000F2DB70472CF50020F47800082DE9F04F79
:1049B0000C4616461D46042E1ED1DFF8A091D9F8EC
:1049C0000090A4EB0909A9F1010313F5803F0DD96B
:1049D0004FF00009C0F84C90C0F85090C0F81C90FF
:1049E00047F27E29A5F80090BDE8F08FC46403F17A
:1049F0000109C0F850903FE084B3082E25D1D0F8CB
:104A0000489009EB0407DFF85491D9F80090A7EB20
:104A10000909A9F10103A34201D2C76406E0DFF846
:104A20003C91D9F80090A144C0F84C90DFF82CA13B
:104A3000D0F84C90DAF800A0A9EB0A09C0F8509021
:104A4000D0F84C90C0F8489016E0DFF81091D9F8F3
:104A50000090A144C0F84C9004650DE0FFE74FF0D2
:104A60000009C0F84C90C0F85090C0F81C9047F274
:104A70007E29A5F80090B7E7DFF8E4A0BAF800A017
:104A8000D0F84C90B9FBFAFB0AFB1B991FFA89F886
:104A9000DFF8D09009EBC802B2F80490B9F1000F2A
:104AA0000BD14FF00009C0F81490C0F818901060B6
:104AB0004FF00109A2F804903EE0116834E0DFF8FD
:104AC0009CA0D1F84C90DAF800A0A9EB0A09C1F833
:104AD0005090D0F85090D1F850A0D1450ED9D1F8CF
:104AE0001490B9F1000F01D049691DE04FF00009A1
:104AF000C0F8149081614861002115E0D1F8189048
:104B0000B9F1000F07D14FF00009C0F818904161CA
:104B10008861106007E0D1F818C0C0F818C0416182
:104B2000CCF81400886100210029C8D1B2F80490A3
:104B300009F10109A2F80490B2F80690B2F804A0B5
:104B4000D14503DAB2F80490A2F80690C2614FF0A2
:104B50000009A5F8009000BF46E70000080100200A
:104B6000F47800082CF5002010B5C269BAB1002411
:104B700004651468844205D14169116039B100248B
:104B80008C6104E0816943694B6103B19961002440
:104B900044618461C461C4649488641E948010BDBF
:104BA000002006E0054A02EBC0010022CA80421C38
:104BB00090B2034A12889042F4DB70472CF5002033
:104BC000F47800082DE9F05F4FF0000B00BF00BF44
:104BD00000BFFBF7E7FA834600BF00BF71480078CB
:104BE000401C7049087000BF00BF5846FBF7DEFA52
:104BF00000BF00BF00BFFBF789FF05466A48006899
:104C0000401C694908600846006868490988B0FB8B
:104C1000F1F201FB12001FFA80FA654800EBCA08A6
:104C2000D8F80040002782E0002C7FD0D4F8149000
:104C300094F83600082875D2DFE800F00408051B58
:104C4000063D075000BF00BF00BF6CE05649E06C56
:104C50000968401A20655449E06C0968884206D109
:104C6000002084F836002046FFF7C8FA00E001274C
:104C700059E04D49E06C0968401A20654A49E06CEA
:104C80000968884215D10020E065A4F86000FBF7B0
:104C90003DFF20642046FEF7ACFB2046FFF7AEFA4E
:104CA00000203434A07003206070002004F8340920
:104CB00000E0012737E03C49E06C0968401A2065B4
:104CC0003949E06C0968884206D1042084F836002E
:104CD0002046FFF749FF00E0012724E03249E06C5D
:104CE0000968401A20653049E06C0968884217D18C
:104CF0000020E065A4F86000FBF708FF2064204670
:104D0000FEF777FB2046FFF72FFF04203434A07016
:104D100003206070002004F8340902E006E001E09E
:104D2000012700E000BF00BF4C4600E00127002F34
:104D30003FF47AAFFBF7EAFE461B1E480068B0421C
:104D400001D21C48066000BF00BF00BFFBF72AFA73
:104D5000834600BF00BF13480078401E1149087009
:104D600008460078A0B914480088002809DD00BF73
:104D700000BF5846FBF71AFA00BF00BFFEF772FDEE
:104D80000DE000BF00BF5846FBF710FA00BF06E079
:104D900000BF00BF5846FBF709FA00BF00BF00BFC5
:104DA000BDE8F09FDA00002008010020F478000838
:104DB0002CF500200C010020AC0000201CB500BF29
:104DC0000EE001AB6A4600210846FDF7B1F8BDF8D8
:104DD000040028B903480078012801D1FFF7F2FE4A
:104DE000EFE70000A100002010B58AB004460020C3
:104DF0001D4908601D490860FFF7C4FD1C48006894
:104E000020B947F2122020800AB010BD194800686E
:104E100019490968884203D247F213202080F3E73A
:104E2000164800783F2803D347F211202080EBE793
:104E30000B20002105910A46CDE9070406910D4893
:104E400000680F4909680A4B1B68CDE90131CDE9BB
:104E500003020A48007800230A4A0BA100900F4879
:104E6000FCF73CFE00BFCFE7080100200C0100204A
:104E7000E4780008EC780008D8780008E0780008AA
:104E8000E8780008BD4D000875432F4F532D494960
:104E900049205469636B205461736B0080FD0020CE
:104EA00070B58AB004460020314908603148006876
:104EB00040B1314800682F490968B0FBF1F02F4933
:104EC000086006E02C4800680A21B0FBF1F02B498D
:104ED00008602A4800682A490860002029490860BB
:104EE00029490860002508E0284800EBC506002095
:104EF000B080F0803060681C85B22548008885420B
:104F0000F2DB2448006820B947F2473020800AB01D
:104F100070BD2148006821490968884203D247F2E0
:104F200048302080F3E71E4800783F2803D347F23B
:104F300046302080EBE70B2000210591CDE90704E6
:104F40000691084614490968164A1268114B1B68F5
:104F5000CDE90132CDE90310114800780023124A4F
:104F600012A100901748FCF7B9FD00BFCFE7000081
:104F70001001002000790008DC78000820010020E2
:104F8000240100201C01002018010020ACF70020A3
:104F900014790008047900080C790008D878000812
:104FA000FC78000808790008BD50000875432F4FB1
:104FB000532D4949492054696D6572205461736BC2
:104FC0000000000040FE0020F0B50C46022680F8EC
:104FD0002A60012C05D12D4F466A3F683E44866108
:104FE0000CE0066A2EB9294F466A3F683E44866146
:104FF00004E0264F066A3F683E448661244F3F889E
:105000008669B6FBF7FC07FB1C66B5B2214E06EBC2
:10501000C502166836B90026066146611060012691
:1050200096802CE0194F86693F68F61BC6611168AF
:1050300020E0164F8E693F68F61BCE61C669CF69C6
:10504000BE4209D90E690EB1096913E00026066156
:105050004161086100210DE04E692EB900264661CC
:1050600001614861106004E04B69436101611861AE
:10507000486100210029DCD19688761C9680D6886C
:105080009788BE4201DA9688D680F0BD1C010020C8
:1050900014790008ACF70020002006E0054A02EB76
:1050A000C0010022CA80421C90B2034A128890427A
:1050B000F4DB7047ACF70020147900081CB500BF82
:1050C00053E001AB6A4600210846FCF731FF01A816
:1050D000FCF7B0FBFBF71AFD064624480068401CAD
:1050E000224908600846006821490988B0FBF1F2AE
:1050F00001FB12001FFA80FA1E4800EBCA08D8F81C
:1051000000404FF0000B21E0F4B1D4F810901749A3
:10511000A0690968884214D1204600F02FF8208D3C
:10512000022804D101212046FFF74EFF02E00320B0
:1051300084F82A00A56815B12046E168A8474C46C6
:1051400004E04FF0010B01E04FF0010BBBF1000F49
:10515000DAD0FBF7DBFC871B01A8FCF7A3FB0648B2
:105160000068B84201D204480760AAE71C01002089
:1051700014790008ACF7002018010020F0B5114E9A
:1051800036888569B5FBF6F706FB1755ACB20E4DB0
:1051900005EBC4021568854205D10169116039B17A
:1051A00000254D6104E0416903690B6103B1596158
:1051B000012580F82A5000250561456195886D1EFE
:1051C0009580F0BD14790008ACF7002013480078F2
:1051D00010B3134813490860022088801248886081
:1051E00003211048818111480E49086102210D48B0
:1051F00081820F480B49886103210A4881830D4849
:10520000084908620421074881840B4805498862DF
:1052100004210448818500E000BF7047F0010020B0
:105220008C7A0008D8FF0020BC7A0008047B0008B4
:10523000347B00087C7B0008DC7B0008B0EE402A51
:10524000F0EE602A32EE620AF0EE400A90ED000ABB
:1052500020EE200AF0EE404A90ED010AB5EEC00AB9
:10526000F1EE10FA04D19FED310A80ED050A29E034
:1052700090ED010A60EE203A90ED050A30EE231A17
:1052800090ED040AB4EEC10AF1EE10FA04D290EDEA
:10529000040A80ED050A15E090ED040ABFEE005AFD
:1052A00020EE050AB4EEC10AF1EE10FA08DD90ED29
:1052B000040ABFEE005A20EE050A80ED050A01E05F
:1052C00080ED051A90ED060A30EEC03A90ED020A24
:1052D00020EE034A90ED060A80ED080AC0ED060AAA
:1052E00090ED050A30EE240A70EE041A90ED030AE0
:1052F000B4EEE10AF1EE10FA02D890ED030A70471D
:1053000090ED030ABFEE005A20EE050AB4EEE10A62
:10531000F1EE10FA06DD90ED030ABFEE005A20EE22
:10532000050AECE7B0EE610AE9E7000000000000C2
:105330009FED270A80ED110A9FED250A80ED120AE4
:105340009FED230A80ED130A9FED210A80ED170AD5
:105350009FED1F0A80ED180A9FED1D0A80ED190AC6
:105360009FED1B0A80ED140A9FED190A80ED150AC6
:105370009FED170A80ED160A9FED150A80ED080AC9
:105380009FED130A80ED090A9FED110A80ED0A0ACC
:105390009FED0F0A80ED000A9FED0D0A80ED010AD6
:1053A0009FED0B0A80ED020A9FED090A80ED0B0AC2
:1053B0009FED070A80ED0C0A9FED050A80ED0D0AAE
:1053C0000221044A82F84010002182F868107047D8
:1053D00000000000787E00200E4991ED000A80ED6B
:1053E000000A91ED010A80ED010A91ED020A80EDBB
:1053F000020A91ED030A80ED030A91ED040A80EDA3
:10540000040A9FED050A80ED060A9FED030A80ED70
:10541000050A704790FF00200000000029B1064AED
:1054200012680243044B1A6004E0034A1268824384
:10543000014B1A60704700003038024029B1064A1B
:1054400012680243044B1A6004E0034A1268824364
:10545000014B1A60704700004038024029B1064AEB
:1054600012680243044B1A6004E0034A1268824344
:10547000014B1A607047000044380240F0B500212B
:1054800000220024022500260223324F3F6807F045
:105490000C0121B1042905D0082937D105E02E4F90
:1054A000076036E02D4F076033E02A4F3F1F3F680B
:1054B000C7F38056274F3F1F3F6807F03F036EB189
:1054C000264FB7FBF3F7DFF88CC0ACF1040CDCF827
:1054D00000C0CCF3881C07FB0CF40CE01E4FB7FB9C
:1054E000F3F7DFF870C0ACF1040CDCF800C0CCF3CB
:1054F000881C07FB0CF4174F3F1F3F68C7F3014799
:105500007F1C7D00B4FBF5F7076002E0124F0760D7
:1055100000BF00BF0F4F3F6807F0F0010909104FAF
:105520007A5C0768D74047600A4F3F6807F4E0514C
:10553000890A0B4F7A5C4768D7408760054F3F6800
:1055400007F46041490B064F7A5C4768D740C76053
:10555000F0BD0000083802400024F40000127A0078
:1055600034010020704710B5044604EB840040006D
:1055700004B2002C0ADD00214FF0804000F06BFBEC
:1055800021464FF0804000F068FB09E061424FF097
:10559000804000F060FB00214FF0804000F05DFB98
:1055A00010BD10B5044604EB8400400004B2002C8A
:1055B0000ADD21464FF0804000F051FB00214FF002
:1055C000804000F04EFB09E000214FF0804000F0E9
:1055D00046FB61424FF0804000F043FB10BD0000ED
:1055E00010B5044604EB8400400004B2002C08DD32
:1055F0002146084800F02FFB0021064800F02DFB53
:1056000007E00021034800F026FB6142014800F05A
:1056100024FB10BD0004004010B5044604EB8400D8
:10562000400004B2002C08DD0021084800F017FB00
:105630002146064800F015FB07E06142034800F0F0
:105640000EFB0021014800F00CFB10BD00040040DF
:105650000CB50020019000903448006840F4803080
:105660003249086000BF3148006800F40030009003
:105670000198401C0190009818B90198B0F5A06FEE
:10568000F1D12A48006800F4003010B101200090E8
:1056900001E0002000900098012846D123484030C6
:1056A000006840F08050214940310860204800687F
:1056B00040F480401E4908601C48083000681B49BF
:1056C000083108600846006840F400400860084659
:1056D000006840F4A05008601648091F0860081FC1
:1056E000006840F08070091F086000BF0F48006824
:1056F00000F000700028F9D040F205600E49086003
:105700000A480830006820F00300084908310860A2
:105710000846006840F00200086000BF03480830F7
:10572000006800F00C000828F8D10CBD00380240D9
:105730000070004008544007003C02401CB50121A5
:105740000220FFF76BFE4FF48070009001208DF86F
:10575000040000208DF8060002208DF805008DF869
:10576000070069461848FBF7EBFA4FF480711648BA
:10577000FBF751FB4FF40070009000208DF80400FF
:105780008DF8060002208DF805008DF807006946A7
:105790000D48FBF7D5FA01211020FFF73FFE01204D
:1057A00000908DF8040000208DF8060002208DF88E
:1057B00005008DF8070069460448FBF7C1FA01218E
:1057C0000248FBF728FB1CBD000402400010024009
:1057D000042808D14FF0E021096941F004014FF09D
:1057E000E022116107E04FF0E021096921F0040196
:1057F0004FF0E0221161704710B5002400BF00BFD8
:1058000000BFFAF7CFFC044600BF00BF2148007874
:10581000401C2049087000BF00BF2046FAF7C6FCB4
:1058200000BF00BF00BF1C480078401C1A49087028
:1058300000BF00BF00BFFAF7B5FC044600BF00BFC1
:1058400014480078401E1349087008460078A0B933
:1058500012480088002809DD00BF00BF2046FAF783
:10586000A5FC00BF00BFFDF7FDFF0DE000BF00BFBE
:105870002046FAF79BFC00BF06E000BF00BF2046B1
:10588000FAF794FC00BF00BF00BFFCF713FFFBF763
:1058900013FF10BDDA000020A0000020AC000020A3
:1058A00010B51548006840F47000134908601348AB
:1058B000006840F001001149086000200F490831DC
:1058C00008600E4800680E4908400C4908600D4801
:1058D000091D0860081F006820F48020091F086067
:1058E000002006490C310860FFF7B2FE4FF000605F
:1058F00001498039086010BD88ED00E000380240A1
:10590000FFFFF6FE1030002410B501F033FEFBF768
:1059100077FBFFF713FF0020FBF7B4FD0120FBF737
:10592000B1FD0120FBF774F90220FBF771F9292181
:1059300040F2E730FBF71AFC292140F2E730FBF791
:10594000D7FCFFF743FC10BD21B1028842F0800272
:10595000028004E002884FF67F731A40028070478D
:1059600021B1028842F00102028004E002884FF671
:10597000FE731A4002807047F0B50C4615461E466D
:105980000021002200230189028B038C4FF6F87757
:10599000394021434FF6FC473A4040F201173A4361
:1059A0004FF6DD773B404FF6FF7707EA06172F43A8
:1059B0003B43018102830384F0BD0146486A70477E
:1059C00070B5002400220023058C4FF6FE7635408A
:1059D0000584028C8388048B4FF68F752C40B51E8E
:1059E0002C400D882C43751E2A408D892A434D88F2
:1059F0002A43104DA84202D00F4DA84213D14FF6B2
:105A0000F7752A40CD892A434FF6FB752A408D88C9
:105A10002A434FF6FF652B404FF6FF552B400D8A6A
:105A20002B434D8A2B43838004838D684563028416
:105A300070BD000000000140000401400A46002142
:105A4000018B4FF6F7731940114301837047000033
:105A500070B5002400220023058C4FF6EF76354008
:105A60000584028C8388048B48F6FF752C404FF622
:105A7000FF452C400D884FF6FF7606EA05252C439E
:105A80004FF6DF752A408D8906EA05152A434D88B1
:105A900006EA05152A43154DA84202D0144DA84226
:105AA0001DD14FF67F752A40CD894FF6FF7606EA65
:105AB00005152A434FF6BF752A408D8806EA05155D
:105AC0002A434FF6FF352B404FF2FF752B400D8ACE
:105AD00006EA85052B434D8A06EA85052B4383801C
